:020000040000FA
:1000000040070020090E0000390200003502000000
:100010003502000035020000350200003502000004
:100020000000000000000000000000003502000099
:10003000350200000000000035020000350200001B
:100040006B1800005B190000111900000118000076
:100050006B1800005B190000111900000118000066
:100060007D12000000000000000000000000000001
:100070000000000000000000000000000000000080
:100080000000000000000000000000000000000070
:100090000000000000000000000000000000000060
:1000A0000000000000000000000000000000000050
:1000B0000000000000000000000000000000000040
:1000C0000000000000000000000000000000000030
:1000D0000000000000000000000000000000000020
:1000E0000000000000000000000000000000000010
:1000F0000000000000000000000000000000000000
:1001000000000000000000000000000000000000EF
:1001100000000000000000000000000000000000DF
:1001200000000000000000000000000000000000CF
:1001300000000000000000000000000000000000BF
:1001400000000000000000000000000000000000AF
:10015000000000000000000000000000000000009F
:10016000000000000000000000000000000000008F
:10017000000000000000000000000000000000007F
:10018000000000000000000000000000000000006F
:10019000000000000000000000000000000000005F
:1001A000000000000000000000000000000000004F
:1001B000000000000000000000000000000000003F
:1001C00040EA01039B0703D009E008C9121F08C0D9
:1001D000042AFAD203E011F8013B00F8013B521E59
:1001E000F9D27047D2B201E000F8012B491EFBD2D0
:1001F00070470022F6E710B513460A460446194632
:10020000FFF7F0FF204610BD30B50B460146002039
:100210002022012409E021FA02F59D4205D303FAC8
:1002200002F5491B04FA02F52844151EA2F1010249
:10023000F1DC30BD00BE70472DE9F04146F22018D8
:10024000C4F20008B8F80000B8F8201040F22C05FD
:1002500001EA0006B7B20024C2F2000527FA04F052
:10026000C00704D055F8241009B12046884701344E
:100270000E2CF3D1A8F81060BDE8F081B0B543F2C0
:100280002404C4F208040025C8200121257100F0CF
:1002900082F8257020780028FCD1207840F00200F8
:1002A000207000BF20788007FCD4002004F8020CE6
:1002B00014F8020C0028FBD1002004F11C0100BF3F
:1002C00011F8102002F07F0201F8102011F910201F
:1002D000002AFBD401300328F2D1012000F00BF8F2
:1002E0004EF2BB420021C4F2010201201170BDE8B0
:1002F000B04000F027B880B50122EFF3108182F3FF
:10030000108840F26C02C2F2000232F810308BB951
:100310004EF2FE3C41F6BC33C4F2010CC0F20003C5
:10032000BCF800E033F8103043EA0E0343F42543F1
:10033000ACF8003032F81030013322F8103081F37D
:10034000108880BD0122EFF3108182F3108840F203
:100350006C02C2F2000232F8103023B132F81030D1
:10036000013B22F8103032F810208AB94EF2FE3CE0
:10037000C4F2010C41F6BC32BCF80030C0F20002FD
:1003800032F8100043F4254222EA0000ACF80000E5
:1003900081F31088704740F21C02C2F2000212681A
:1003A00001FB00F04CF60021C3F69A314FF47A7C41
:1003B000B1FBF2F1A0FB0C321AB9B3FBF1F08008EB
:1003C00005E08900B0FBF1F0A0FB0C0119B908B100
:1003D00000F093BE70474FF0FF3000F08EBE7047C4
:1003E000022818BF704740F2640041F6C431C2F2DF
:1003F0000000C0F2000100F0E3B80346C160002035
:100400005A61704780B50146406846F2802C4068CA
:10041000C4F2000C03784FF0000E4CF823E08B6818
:1004200083F81CE08369BBB14368012203F01F0C11
:1004300002FA0CFC4EF280125B09CEF2000242F886
:1004400023C0BFF34F8FBFF36F8F406840F2F002BD
:10045000C2F2000242F820E00020C1F800E080BDB6
:10046000416846F2802C4968C4F2000C0A780023E7
:100470004CF82230826813774A6909784CF82120B9
:10048000816800204B7770478168012200200A773D
:1004900070474FF480628A604FF4803280680A604F
:1004A000028AC3684B608068002380B2B3EB923F3E
:1004B000C86004BF4FF6FF7088600020704770B5B9
:1004C0004A6845F2000C1378C4F2000C0CEB83135D
:1004D0000446C0E90113106A936960610020E3607B
:1004E0002061EFF31083012080F3108844F20005AF
:1004F0001278C4F208054FF4800E2E680EFA02F24C
:1005000026EA02022A602A6883F310888CF8000227
:100510000968204601F010F844F24311C4F24D413D
:100520000020216070BD10B5044601F005F8A168F7
:10053000012200200A7710BD0620704780B582B0E6
:1005400001910092416846F2802C4968C4F2000C87
:100550000A784FF0000E4CF822E0826882F81CE026
:100560004A6909784CF82120816881F81DE00199D9
:1005700011B1019982681160009911B100998268E6
:10058000516081680C22B1F810C0BCF5804F38BFB3
:1005900008228B508168012200200A7702B080BDBA
:1005A000090182680131002051777047816800227B
:1005B00000204A7770470146002200200A607047F9
:1005C00080B545F25422C5F24F020260084601F0A0
:1005D00079F8002080BD70B586B001A8012604908E
:1005E00003A814460D46CDE90121ADF80C6000F0DA
:1005F00089FD40F27400EFF3108186F31088C2F297
:10060000000002683AB940F60352C4F2080200231F
:1006100013704023137002680132026081F3108866
:10062000E10340F60001C4F208014FEA152201D4AB
:10063000EBB20CE001EB8216EBB256F8235025F436
:10064000803546F8235024F4803546F8235001EBDA
:100650008211012241F82340EFF3108182F31088C8
:10066000026812B10268013A0260006838B940F6C7
:100670000350C4F20800002202708022027081F34D
:100680001088002006B070BD4FF4FF5000EAD10082
:100690000423C4F20803C0580023CFF6FF7343EAD3
:1006A0001040C9B2C84000F001010020116070473D
:1006B00080B5C8B24FF0010C4FF4FF5303EAD103E9
:1006C0000CFA00FE40F20C0CC4F2080C53F80C10AB
:1006D000012A4CEA030C08D14FF4803202FA00F0F0
:1006E00021EA000040EA0E0207E04FF4803221EADE
:1006F0000E0102FA00F041EA00020020CCF80020CE
:1007000080BD6FF03F0000EA9100C9B200EB8100AC
:1007100040F60001C4F208014058C0F34001002037
:1007200011607047C8B2012383409BB24FF4803CF4
:10073000002A08BF0CFA00F34FF4FF5000EAD10181
:100740000822C4F2080200208B50704780B508468A
:1007500000F0B8FF002080BD80B54FF4FF5000EAE4
:10076000D10140F2000CC4F2080C51F80CE003EA8D
:10077000020040EA0E0062EA03020240002041F853
:100780000C2080BD4FF4FF5000EAD1000421C4F2D8
:1007900008014058010C00201180704703EA020054
:1007A00023EA020240EA02424FF4FF5000EAD1017C
:1007B0000C23C4F208030020CA5070474FF4FF50C6
:1007C00000EAD1000421C4F2080141580020118040
:1007D000704703EA020023EA020240EA02424FF4B1
:1007E000FF5000EAD1010823C4F208030020CA50D8
:1007F0007047B0B50D468907044601D4062012E0C3
:10080000206A817801F07B018170E069406B40B122
:1008100081680068096988470021216180B900204A
:1008200001E000202061E9070AD0E069016B0020A7
:10083000A06129B18A6808681169BDE8B04008471D
:10084000B0BD10B5C2690123127803FA02F212F0AA
:10085000060F02D00A78120723D4026A4FF0000E66
:1008600092F802C00CF00B039370036A8A78C0F808
:100870000CE05A704A781C7802F0030204F0FC0481
:1008800022441A70CA789A74DA79097802F0A302BD
:1008900001F05C011144D971006A0CF07B01817098
:1008A00001E04FF0030E704610BD8446C0E9091305
:1008B0000020CCF82C20704710B50446216A002097
:1008C00060608870E069012240694EF2801300F098
:1008D0001F0102FA01F14009CEF2000343F8201093
:1008E000BFF34F8FBFF36F8FE069C06A00F01F0145
:1008F00002FA01F1400943F82010BFF34F8FBFF314
:100900006F8FE069C06900F01F0102FA01F1400930
:1009100043F82010BFF34F8FBFF36F8FE069406A39
:1009200000F01F0102FA01F1400943F82010BFF363
:100930004F8FBFF36F8FE069016B21B18A68086840
:10094000116A8847E069406B18B181680068096ADC
:1009500088470120EFF3108180F3108844F20403EC
:10096000E069C4F2080300784FF000421C6822FAE4
:1009700000F020431860186881F31088002010BD33
:10098000C069026B002A4FF0FF32C1E900221CBF90
:100990004FF480324A60406B10B14FF480300860F1
:1009A000002070472DE9F04381B00D4609780122FF
:1009B0008A4012F0060F044605D0286CC068007803
:1009C000000700F1BD8048F20000C4F2110000EB06
:1009D0000120A96B2062A078EA6B20F00300431C81
:1009E000A3706B6861624FF000012170E561C4E99A
:1009F0000A1213B940F00200A070EE6A4EF200181D
:100A000006F01F014FF0010CCEF200080CFA01F3C2
:100A100008F18001770995F8282041F82730BFF3C5
:100A20004F8F46F20039C4F20009BFF36F8F59F8B7
:100A30002630170123F4803349F8263008F5407238
:100A400059F8263097556F6940F2F00E07F01F00F5
:100A5000C2F2000E0CFA00F07B094EF826402E7C04
:100A600041F82300BFF34F8FBFF36F8F59F8270072
:100A7000330120F4803049F8270059F82700D35576
:100A8000E8694EF8274000F01F060CFA06F6470901
:100A90002B7E41F82760BFF34F8FBFF36F8F59F85C
:100AA00020601B0126F4803649F8206059F8206048
:100AB00013544EF82040686A95F8203000F01F0665
:100AC0000CFA06F7460941F82670BFF34F8FBFF3C3
:100AD0006F8F59F820101B0121F4803149F8201044
:100AE00059F8201013544EF82040286B78B1406814
:100AF00002684FF4002042F8040B206A296B431D62
:100B0000204600F061FE0646002840F00981686B2F
:100B1000C0B1406802684FF0006042F8080B206ADC
:100B2000696BC31C204600F04FFE58B10646286B87
:100B3000002800F0F58081680068096A8847EFE0C6
:100B40000326EDE00120EFF3108180F3108844F2DA
:100B500004072A78C4F208074FF000433E6823FADE
:100B600002F226EA02023A603A6881F31088002213
:100B7000216A8A70216A0A71216A4A72216A8A721C
:100B8000216ACA72216A4A83297800FA01F240F286
:100B900019210A4202D0226A4023D374226A062312
:100BA00013772A789040084203D0206A4FF47841A6
:100BB0008182D5E90112E8684FEAC00040EA0210DC
:100BC00029B1032908BF40F04000F22100E0E221F2
:100BD000226A00271070206A02228171286C8169C4
:100BE00002EA41020829216A08BF0A224A73236ADD
:100BF000D0E901121F720368C90123F00103C9B2D1
:100C0000022B62F345110AD1226AFF235370006858
:100C10000228206A08BF41F01001C17117E0226A62
:100C2000D171C068216A82784A7042780B7802F0EC
:100C3000030203F0FC031A440A70C2788A74CA796A
:100C4000007802F0A30200F05C001044C871002696
:100C5000E169C4E90366C4E90566286C4F69017857
:100C600059F8272007F01F0322F4803249F8272083
:100C700059F82720012202FA03F508F5C0737F090D
:100C8000BFF35F8F43F8275048F82750E769FF6AA2
:100C900059F8275025F4803549F8275059F827503E
:100CA00007F01F0502FA05F57F09BFF35F8F43F8D0
:100CB000275048F82750E769FF6959F8275025F46D
:100CC000803549F8275059F8275007F01F0502FAD8
:100CD00005F57F09BFF35F8F43F8275048F8275089
:100CE000E7697F6A59F8275025F4803549F827507D
:100CF00059F8275007F01F05AA407F09BFF35F8FFF
:100D000043F8272048F827201C22236A62F39F011A
:100D10009970406944F65511C5F24331C4E9011098
:100D2000304601B0BDE8F08370B50446C069154691
:100D3000006B0E4678B1A178826801F00301013999
:100D400025FA01F10068D2F808C08BB200213246C2
:100D5000E04700B170BD0020C4E9056570BDB0B5C5
:100D600084B0054680690C46E96920600020A861CE
:100D7000096B79B18A6808681169884750B9E869D0
:100D8000006B81680068CA696946904710B903988A
:100D90002060002004B0B0BD70B50446006A0E4665
:100DA000837803F07B038370E569A0786D6B00F0B6
:100DB0000300131A0144E160236185B190420ED013
:100DC000013823FA00F2AB6828689D6893B24FF0AF
:100DD000000C0022C4F810C0A84700B170BD206A02
:100DE000817841F080018170A07800F00300022832
:100DF00005D13088216A40F47E40C88102E0307815
:100E0000216AC870002070BD00F01AF800F08FFB56
:100E1000FEE74EF22000C4F201008179006840F242
:100E20002032C2F20002C0F3026052F8211021FA0F
:100E300000F040F21C01C2F200010860704700009F
:100E400070B54EF6085040F20005CEF200004FF4A7
:100E50007001C0F20005C0F8801005600020FFF7A7
:100E6000BFFA00F069F801200124FFF7B9FA2868F9
:100E700040F20431A0F5806080F30A8840F21C0043
:100E8000C2F20000C0F20001FFF7B3F940F2000027
:100E900041F6FC7140F21C02C2F20000C0F20001F7
:100EA000C0F20002FFF78CF940F2C01540F2C0100A
:100EB000C0F20005C0F20000401B8110012909DBCF
:100EC0002E46C8BF841000BF56F8040B2844804744
:100ED000013CF9D1FFF79DFFFFF7D0F90320FFF7A1
:100EE0000AFA40F610510020C4F208014FF6FF72D2
:100EF00021F8102001300828FAD10320FFF722FA48
:100F00000320FFF7F8F90420C4F20E00002101606D
:100F100041608160C1600320FFF714FA0220FFF7EF
:100F20005FFA00F09FF80020BDE8704000F099B82B
:100F300000BE00BFFEE700002DE9F0414EF2FE3496
:100F4000C4F201044AF203504CF200152080C4F2AE
:100F500001050120A88000BFA8880028FCD101203D
:100F6000288040F2203642F6005041F20022C2F2C0
:100F70000006C0F23110C0F27A02C6E9000243F264
:100F800000604FF40041C0F26E10C6E902104CF24E
:100F90000020C0F6EB304EF220073161C4F20107A9
:100FA0007061B879396856F82000C1F3026140F2E7
:100FB0001C08C840C2F20008C8F800000020607594
:100FC000092087F8820094F8820018B994F8830009
:100FD000800741D094F8820050B9012084F8820043
:100FE000C8200121FFF7D7F994F882000128FBD12E
:100FF000002084F8830084F882000020B87400BFC9
:10100000387F0007FCD543F2021038810020B87207
:10101000387F8006FCD50120287741F22120C2F2DA
:10102000021038600520B871B879396856F8200088
:10103000C1F30261C840C8F8000042F20800C4F2DF
:101040000000F121017100210170F02101714FF4C4
:1010500025402080BDE8F0814FF47A70FFF7BFF99A
:10106000CBE77047F0B583B048F248070320C4F2DD
:101070000007FFF740F96FF0FF0038604FF0FF30D6
:1010800041F628440290CDE9000000210122C0F27F
:101090000004684654F8213053B14D0901F01F0394
:1010A00050F8256002FA03F326EA030340F82530DE
:1010B00001316029EED14EF280320021CEF20002E1
:1010C00050F8213007EB8106B36242F8213001313C
:1010D0000329F5D10320FFF735F946F2003100204E
:1010E000C4F2000154F820200AB141F82020013058
:1010F000602804BF03B0F0BDF4E701380028FCD13C
:10110000704700002DE9F04F81B0044600880028A8
:101110005AD043F240084EF2BB4B0025C4F20808F7
:101120000FF2AC0AC4F2010B4FF00109002700BF17
:1011300060685AF8272000EBC501496891423CD10C
:1011400050F835009BF8001000F0B85009FA07F687
:10115000B0F1807F06EA010014D150B90120FFF7F9
:10116000CAF89BF8000030438BF800000120FFF71D
:10117000E9F818F9170000281FD418F8170040F0F4
:10118000800014E050B10120FFF7B5F89BF8000093
:10119000B0438BF800000120FFF7D4F818F91700CE
:1011A000B0F1FF3F09DC18F8170000F07F0008F8E5
:1011B0001700C8200121FFF7EEF80137032FB7D140
:1011C000208801358542B1D301B0BDE8F08F00BF62
:1011D00002040000030400000404000010B540F203
:1011E0002004C2F2000421880CA000F02DFC6188CC
:1011F0000EA000F029FCA18810A000F025FCE188D9
:1012000012A000F021FC218914A000F01DFC6189CE
:1012100016A0BDE8104000F017BC00BF6368616E07
:101220006E656C5F303A202564200A006368616E49
:101230006E656C5F313A202564200A006368616E38
:101240006E656C5F323A202564200A006368616E27
:101250006E656C5F333A202564200A006368616E16
:101260006E656C5F343A202564200A006368616E05
:101270006E656C5F353A202564200A0010B582B097
:10128000EFF3038040F2FC7101EA800046F2C021D6
:10129000C4F20001425822F48032425040F2F0027F
:1012A000C2F200024158104450F8404C6069E168B5
:1012B000019001A88847A068C16809B101210177A0
:1012C00002B010BDB0B540F29C24C2F20004D4E9D3
:1012D000000140F2DC22C2F200021060A0685160FE
:1012E00090602069E1681061A069D1609061206A16
:1012F00061691062A06A5161E1699062206BD161FD
:10130000616A1063A06B5162E16A906341F6E85034
:10131000D162616BC0F2000005685163E16B284641
:10132000D163FFF79DF848F20521C4F21101284668
:1013300022464023FFF702F92846BDE8B040FFF7F8
:10134000A3B8000080B582B0019040F29000C2F2D4
:10135000000001A90122FFF71FFD40F21C30C2F27C
:10136000000000BF01780029FCD000210170019825
:1013700002B080BD00F042FB00F00CF8FFF72EFF3A
:1013800000F05AF800F0ABF864204FF47A71FFF7E0
:1013900002F8F3E7B0B541F6E855C0F200052C6855
:1013A00048F2052140F29C22C4F211012046C2F20B
:1013B00000024023FFF7C2F890B969682046FFF7A2
:1013C0007EF8C0B92046FFF75FF8F8B941F6C8616A
:1013D000C0F20001D1E90001FFF7E4FA08BBB0BD9B
:1013E00041F6977041F68871C0F20000C0F200012A
:1013F0005322FFF79DFD41F6977041F68871C0F2C8
:101400000000C0F200015622FFF792FD41F69770EE
:1014100041F68871C0F20000C0F200015822FFF7C7
:1014200087FD41F6977041F68871C0F20000C0F266
:1014300000015A22FFF77CFD70B588B040F2DC2035
:1014400000220125C2F20000815C202903D181180D
:101450004B78402B09D01F2A02F101024FF0000502
:1014600038BF0125202AEFD137E040F27C24C2F2B8
:10147000000420462022FEF7A3FEE8072DD001AE8F
:1014800030461C21FEF7B5FE2078202825D1607853
:10149000402822D14FF69F70002100BF04EB41028B
:1014A0009378D27843EA02251A4426F81150013184
:1014B0000E29A0EB0200F1D1E18B80B281420CD168
:1014C000DDE9010140F22002C2F20002039B0BC2DF
:1014D00040F27022C2F200020BC208B070BDF0B53B
:1014E00081B041F6A850C0F20000856840F6A01611
:1014F000C4F208060468EB69B068012727EA5002C5
:10150000204640F20A619847EB69706840F2096131
:1015100027EA500220469847EB6930684FF4C161D2
:1015200027EA5002204601B0BDE8F040184780B5D8
:10153000FFF720FF002080BD2DE9F04F83B0426807
:1015400046F280295268C4F200091378002749F84E
:10155000237083681F775369167849F826308368AB
:101560005F77CD7891F802A0C5F30113C0271B0265
:1015700007EA0A16AF0943EA873E4FF0FF3707EB49
:101580009517C5F38108CB89022F0DD843EA034490
:101590008B89022F029324F0FC23009309D0CAF315
:1015A00000144EEA043E04E000934EF4005E002373
:1015B0000293C46846EA883B53690193C4B3BF2DC4
:1015C000147A55684EF20018CEF200084FEA04145F
:1015D00005EB080686F8004340F2F006C2F200066A
:1015E00009EB850446F82500D4F880304FF0010758
:1015F00023F48033C4F88030D4F8803005F01F0421
:101600004FEA551507FA04F408EB85074FF01C0C58
:10161000BFF35F8FC7F8804148F8254088BF4FF07F
:10162000100CCD785FEA8A6358BF4FF0100C01E0D0
:101630004FF0000CBF2D1FD905F00C03B1F80C9032
:10164000CF89042B12BFB2F810A04BF4005BCA463E
:101650008B7803F00C03042B04BF01274BF0200B05
:101660004C68856807FB09F82C624AEA0A478B68D0
:10167000C8EA08446B6202E0856800270024019EE6
:10168000AF628368002EDC628368A3F814B08368BD
:1016900018BF4EF0010EA3F810E04B6887683B605E
:1016A0008968836859608168009B8B608168029BB0
:1016B000CB60D16882689161806880F813C003B004
:1016C000BDE8F08F70B50446FFF71CFD40F2740CC6
:1016D000EFF31080012181F31088C2F2000CDCF8D6
:1016E000001039B940F60351C4F2080100220A7013
:1016F00040220A70DCF800100131CCF8001080F3B1
:101700001088208828B340F6000E0021C4F2080E8D
:10171000606800EBC10250F831305268D8034FEADC
:10172000122001D4D2B20CE00EEB8015D2B255F8E3
:10173000226026F4803645F8226023F4803645F88E
:1017400022600EEB8010013140F822302088814267
:10175000DED30120EFF3108180F31088DCF8000065
:1017600020B1DCF800000138CCF80000DCF8000003
:1017700038B940F60350C4F20800002202708022FB
:10178000027081F3108870BDB0B584B00446806AE1
:1017900040B1D0E900CED0E90253CDE900CECDE989
:1017A000025300E06846E369D4F824C01B78E56A78
:1017B000C0E90032C0E90215E047A06A10B19DE817
:1017C0002E002EC004B0B0BD80B5C069D1F804C0F1
:1017D0004068DCF800E0136058B99EF8030000F0A0
:1017E000CF0010308EF80300D1F804C003F10B00D5
:1017F00010608A68086812686146BDE8804010473A
:10180000B0B5EFF303806FF35F20A0F1100540F255
:10181000F000C2F2000050F825008178036A01F060
:101820000301022912BF5979198A6FF35F211A79CE
:10183000D40602F0380203D51C7FE40708BF40320B
:101840001C7904F0C7041C71436A0BB1FFF79CFFBD
:1018500046F20030C4F2000050F8251021F4803127
:1018600040F8251050F82500B0BD10B582B0EFF358
:10187000038040F2FC7101EA800046F2C021C4F20C
:101880000001425822F48032425040F2F002C2F28B
:1018900000024158104450F8404CE069006B70B1B0
:1018A000A06960B1616A00206061A06171B32046E7
:1018B0000021012202B0BDE81040FFF765BFA0780B
:1018C00000F00302206A022A12BF4179018A6FF3F5
:1018D0005F21A069019198B1606901A9FEF770FCD0
:1018E000A0786169A26900F003000144101A6161E7
:1018F000A0610BD1606A48B120460021012203E0BB
:10190000606A18B120460422FFF73EFF02B010BD06
:1019100010B5EFF303806FF35F20A0F1100440F2E5
:10192000F000C2F2000050F82400016A8A7802F048
:101930007B028A70416A19B100210222FFF724FF5D
:1019400046F20030C4F2000050F8241021F4803137
:1019500040F8241050F8240010BDEFF3038040F24B
:10196000FC7101EA800046F2C021C4F20001425835
:1019700022F48032425040F2F002C2F2000241589A
:10198000104450F8400CC1694A6B0169C2B9C1B139
:10199000817801F00302C168022A05D10988026A30
:1019A00041F47E41D18102E00978026AD1708178E8
:1019B000026901F00303D11AC26801611A44C260CE
:1019C00079B9016A8A7802F07B0204328A70416A2E
:1019D00000294FF00001C16003D000218022FFF7F1
:1019E000D3BE70474068022818BF704740F21C30D1
:1019F000C2F20000012101707047000080B541F67D
:101A00004C61C0F20001D1E90001FEF7CBFF00B943
:101A100080BD02A006A11B22FFF78AFA4653505F41
:101A200053554343455353203D3D2065727200009A
:101A30004170702F6273705F756172745F6465626C
:101A400075672E63000000000FB4054B10B503A9A5
:101A5000044A029800F008F810BC5DF814FB00007E
:101A600045130000000000202DE9FF4F89B09B4680
:101A70000446002506E025280BD05A460B999047CE
:101A8000641C6D1C20780028F5D10DB02846BDE8F7
:101A9000F08F0027B8460122474900E0074314F8B9
:101AA000013F203B02FA03F00842F7D120782E28AC
:101AB00019D114F8010F47F004072A280ED06FF04F
:101AC0002F022078A0F1300109290CD808EB8801F9
:101AD00002EB410100EB0108641CF2E70A98641C68
:101AE00050F8048B0A9020780028CED0642808D0C3
:101AF000692806D075281ED05A460B9990476D1C50
:101B000058E00A994FF00A0901C90A91002802DA3F
:101B100040422D2102E0390504D52B218DF82010FB
:101B2000012103E0F90704D02021F7E78A4608AE37
:101B30000DE00021FAE70A994FF00A0901C90A915C
:101B4000F7E74946FEF760FB303106F8011D002833
:101B5000F7D1ADEB060000F12009780701D44FF072
:101B60000108C84502DDA8EB090000E0002080461E
:101B7000002706E008A85A46C05D0B9990476D1CE7
:101B80007F1C5745F6DB04E030205A460B999047FE
:101B90006D1CB8F10001A8F10108F5DC05E016F8AC
:101BA000010B5A460B9990476D1CB9F10001A9F140
:101BB0000109F4DC641C65E709280100010002004A
:101BC000080010000B000000D01B00000000000007
:101BD00000000104000100000000010401010000F8
:101BE00000000100080100000000010009010000E0
:101BF000000001000A010000000001040C010000C7
:101C0000000001040D0100000000010000030000BD
:101C1000040000000806000004000000090600009F
:101C2000040000000A06000080010000810100009D
:101C300082010000830100008C0100008D01000082
:101C40008E0100008F010000200000000000000055
:101C50000000000000000000000000000000000084
:101C60000000000000000000000000000000000074
:101C70000000000000000000000000000000000064
:101C80000000000000000000000000000000000054
:101C90000000000000000000000000000000000044
:101CA0000000000000000000000000000000000034
:101CB0000000000000000000000000000000000024
:101CC0000000000000000000000000000000000014
:101CD0000000000000000000000000000000000004
:101CE00000000000000000000000000000000000F4
:101CF00000000000000000000000000000000000E4
:101D000000000000000000000000000000000000D3
:101D100000000000000000000000000000000000C3
:101D200000000000000000000000000000000000B3
:101D300000000000000000000000000000000000A3
:101D40000000000000000000000000000000000093
:101D50000000000000000000000000000000000083
:101D60000000000000000000000000000000000073
:101D70000000000000000000000000000000000063
:101D80000000000000000000000000000000000053
:101D90000000000000000000000000000000000043
:101DA000000000000000000064000020C41B0000D0
:101DB000B41D0000C1050000B70500004D0700007C
:101DC000D705000089060000B106000003070000E7
:101DD0002507000059070000850700009D07000047
:101DE000BD070000D307000078000020F41D0000AC
:101DF000201E000004000020FC1D00000000000068
:101E000008000000080000000100000001000000C0
:101E10008C010000C512000000000000000000005E
:101E2000BF040000270500003D05000089040000F4
:101E300061040000A1050000AD050000930400004E
:101E40000504000039050000FB030000900000209D
:101E5000581E0000441F00000000000002000000A7
:101E600000000000000000000C0000000000000066
:101E70000C000000010000000C0000000200000047
:101E80000C00000003000000000000000000000043
:101E9000E5190000000000009C1E0000000000008A
:101EA0000100000000000000140000200F000000EE
:101EB000FFFF000000000000000000000000000024
:101EC000FFFF000000000000C0000020D41E000042
:101ED000441F00000200000002000000000000009B
:101EE000000000000C000000040000000C000000D6
:101EF000050000000C000000060000000C000000BF
:101F000007000000000000000000000000000000CA
:101F100000000000181F0000000000000100000089
:101F200000000000180000200F000000FFFF00006C
:101F3000000000000000000000000000FFFF0000A3
:101F400000000000A5090000290D0000990D000007
:101F50004308000081090000F3070000AB080000FF
:101F6000B90800005F0D00000028000000000220FA
:101F700000000008008000000000022000000008AF
:101F800000000000000000204170702F6472765F36
:101F9000696275732E63004653505F535543434542
:101FA0005353203D3D20657272000000000008057B
:101FB000352E382E30004275696C7420776974684C
:101FC0002052656E6573617320416476616E63654E
:101FD0006420466C657869626C6520536F6674771F
:101FE000617265205061636B61676520766572730D
:101FF000696F6E20352E382E300000000000000082
:102000000000180000000000000000000100400077
:082010004000350040003500DE
:020000040100F9
:10A10000FFFFFFFFFFFFFFFFFFFFFFFFFFFFFFFF5F
:10A11000FFFFFFFFFFFFFFFFFFFFFFFFFFFFFFFF4F
:10A12000FFFFFFFFFFFFFFFFFFFFFFFFFFFFFFFF3F
:10A13000FFFFFFFFFFFFFFFFFFFFFFFFFFFFFFFF2F
:10A14000FFFFFFFFFFFFFFFFFFFFFFFFFFFFFFFF1F
:10A15000FFFFFFFFFFFFFFFFFFFFFFFFFFFFFFFF0F
:10A16000FFFFFFFFFFFFFFFFFFFFFFFFFFFFFFFFFF
:10A17000FFFFFFFFFFFFFFFFFFFFFFFFFFFFFFFFEF
:020000040100F9
:10A20000FFFDFFFFFFFFFFFFFFFFFFFFFFFFFFFF60
:10A21000FFFFFFFFFFFFFFFFFFFFFFFFFFFFFFFF4E
:10A22000FFFFFFFFFFFFFFFFFFFFFFFFFFFFFFFF3E
:10A23000FFFFFFFFFFFFFFFFFFFFFFFFFFFFFFFF2E
:10A24000FFFFFFFFFFFFFFFFFFFFFFFFFFFFFFFF1E
:10A25000FFFFFFFFFFFFFFFFFFFFFFFFFFFFFFFF0E
:10A26000FFFFFFFFFFFFFFFFFFFFFFFFFFFFFFFFFE
:10A27000FFFFFFFFFFFFFFFFFFFFFFFFFFFFFFFFEE
:10A28000F8F8FFFFFFFFFFFFFFFFFFFFFFFFFFFFEC
:10A29000FFFFFFFFFFFFFFFFFFFFFFFFFFFFFFFFCE
:10A2A000FFFFFFFFFFFFFFFFFFFFFFFFFFFFFFFFBE
:10A2B000FFFFFFFFFFFFFFFFFFFFFFFFFFFFFFFFAE
:10A2C000FFFFFFFFFFFFFFFFFFFFFFFFFFFFFFFF9E
:10A2D000FFFFFFFFFFFFFFFFFFFFFFFFFFFFFFFF8E
:10A2E000FFFFFFFFFFFFFFFFFFFFFFFFFFFFFFFF7E
:10A2F000FFFFFFFFFFFFFFFFFFFFFFFFFFFFFFFF6E
:0400000500000E09E0
:00000001FF
